:020000040800F2
:1000000060110020AD0100086108000863080008C5
:10001000670800086B0800086F080008000000006F
:10002000000000000000000000000000730800084D
:10003000750800080000000077080008C5010008E6
:10004000C7010008C7010008C7010008C701000870
:10005000C7010008C7010008C7010008C701000860
:10006000C7010008C7010008C7010008C701000850
:10007000C7010008C7010008C7010008C701000840
:10008000C7010008C7010008C70100080000000000
:10009000000000000000000000000000F908000857
:1000A000C7010008C7010008C7010008C701000810
:1000B000C7010008C7010008C7010008C701000800
:1000C000C7010008C7010008C7010008C7010008F0
:1000D000C701000879080008C701000800000000F7
:1000E000C7010008C7010008C701000800000000A0
:1000F000000000000000000000000000C701000830
:1001000000000000C7010008C7010008C70100087F
:1001100000000000000000000000000000000000DF
:10012000C7010008C7010008C7010008C70100088F
:10013000C7010008000000000000000000000000EF
:10014000000000000000000000000000C7010008DF
:10015000C7010008C7010008D1080008C70100084E
:10016000C7010008C70100080000000000000000EF
:10017000000000000000000000000000000000007F
:1001800000000000C701000800000000000000009F
:10019000C7010008C7010008DFF80CD001F05EFDC0
:1001A00000480047590700086011002006488047B2
:1001B00006480047FEE7FEE7FEE7FEE7FEE7FEE74C
:1001C000FEE7FEE7FEE7FEE7890200089901000866
:1001D0000CB50020019000906D48006840F480301C
:1001E0006B49086000BF6A48006800F40030009066
:1001F0000198401C0190009818B90198B0F5A04FE3
:10020000F1D16348006800F4003010B10120009083
:1002100001E0002000900098012834D15C48403073
:10022000006840F080505A494031086059480068E1
:1002300040F4404057490860554808300068544928
:10024000083108600846006808600846006840F405
:10025000805008604FF4C0604F4908604C48083037
:10026000006820F003004A49083108600846006829
:1002700040F00100086000BF45480830006800F009
:100280000C000428F8D10CBD10B54448006840F4B7
:100290007000424908603E48006840F001003C4957
:1002A000086000203A4908310860394800683C4934
:1002B0000840374908603B48091D0860081F00686E
:1002C00020F48020091F0860002031490C310860AB
:1002D000FFF77EFF4FF0006030498039086010BDA5
:1002E00070B500200022022300240221284D083589
:1002F0002D6805F00C0020B1042806D0082834D160
:1003000007E0294D294E356033E0274D274E3560F3
:100310002FE01F4D2D1D2D68C5F380541C4D2D1D44
:100320002D6805F03F0154B11F4DB5FBF1F5184E96
:10033000361D3668C6F3881605FB06F209E01A4D2D
:10034000B5FBF1F5124E361D3668C6F3881605FB6F
:1003500006F20F4D2D1D2D68C5F301456D1C6B0078
:10036000B2FBF3F5114E356003E00F4D0F4E3560D3
:1003700000BF00BF064D08352D68C5F303150C4EB0
:10038000705D0A4D2D68C540084E356070BD000097
:100390000038024000700040003C024088ED00E060
:1003A000FFFFF6FE103000240024F40000000020BF
:1003B0000400002000B58BB00121022001F0A8F854
:1003C0000121880301F0ECF84FF40870069000203A
:1003D000079001200A900220089006A9184800F012
:1003E0000FFE0521012001F0C4F920200290012018
:1003F0000590002003900C20049002A800F000FD5E
:100400000921012001F0B5F94FF40070029001209C
:100410000590002003900C20049002A800F0F0FC4E
:1004200017208DF8000000208DF8010001208DF8C4
:1004300002000190684600F096FA0BB000BD000083
:100440000004024000B585B00121042001F060F8ED
:100450004FF4707000900120019000200390012063
:100460000490022002906946024800F0C9FD05B0E0
:1004700000BD00000008024010B58CB00446012108
:10048000084601F045F84FF4C0600790022008903C
:10049000099000200A9001200B9007A98D4800F0D8
:1004A000AFFD25208DF8040000208DF80500022006
:1004B0008DF806000120029001A800F054FA039480
:1004C0000020ADF81000ADF81200ADF81400ADF842
:1004D00018000C20ADF816000121102001F060F882
:1004E000072209217B4800F016FE07220A217948DD
:1004F00000F011FE03A9784801F0DBF9012240F277
:100500002441754801F013FB0121734801F059FAA9
:100510000CB010BD00B591B00121880500F0F8FFC6
:100520006E4800F08BFA00BF6C4800F0B0FB00286A
:10053000FAD14FF0006002906748001D03906848B0
:1005400004904020059064200690002007904FF40E
:1005500080600890002009900A900B904FF40030C2
:100560000C9000200D9003200E9000200F90109012
:1005700002A95A4800F004FB46208DF80000002034
:100580008DF8010001208DF802000190684600F00E
:10059000EAF901221021514800F0B9FB01214F482E
:1005A00000F028FB012280214B4801F0B7FA01211D
:1005B000880500F0ADFF4948303800F03FFA00BF31
:1005C0004648303800F063FB0028F9D14FF0006056
:1005D00002904148001D039042480490002005907D
:1005E00064200690002007904FF48060089000205F
:1005F00009900A900B904FF400300C9000200D9061
:1006000003200E9000200F90109002A9334830383C
:1006100000F0B6FA44208DF8000000208DF80100AB
:1006200001208DF802000190684600F09CF901213C
:100630002A48303800F0DEFA01224021264801F035
:100640006DFA11B000BD70B504460D46002120467C
:1006500000F0D0FA00BF204600F019FB0028FAD1C4
:100660002946204600F0E7FA0121204600F0C2FAB0
:1006700070BD70B504460025194D05F8014B0121E8
:100680001648FFF7E0FF70BD2DE9F04105460E4624
:1006900000240027124F00BF04E0285D07F8010B7B
:1006A000601C84B2B442F8DB31460C48FFF7CBFF44
:1006B000BDE8F08170B504460D46E1B2064801F090
:1006C000ABF900BF4021044801F056FA0128F9D1E6
:1006D000204670BD0000024000100140B864024096
:1006E00094000020F800002001460A01D2084FF0D3
:1006F000E0235A6100229A6101221A6100BF4FF083
:10070000E022106900F001021AB100F48032002AE0
:10071000F5D000224FF0E0231A619A61704701463C
:100720004FF47A524A43D2084FF0E0235A61002234
:100730009A6101221A6100BF4FF0E022106900F0B7
:1007400001021AB100F48032002AF5D000224FF0E5
:10075000E0231A619A617047FFF796FD4FF4A0609D
:1007600000F0FCF8FFF76EFE4FF400712C4800F02B
:10077000C3FC4FF47A70FFF7D2FF4FF400712848A2
:1007800000F0BCFCFFF716FE4FF4E130FFF774FEFB
:1007900024A001F075FAFFF7BDFE40E0264800787E
:1007A00001280FD125A001F06BFA32212548FFF76F
:1007B0006BFF0020204908704FF48071184800F04A
:1007C0009BFC11E02048007801280DD11BA001F00E
:1007D00057FA32211D48FFF757FF00201A490870C9
:1007E00040210F4800F088FC4FF480710C4800F065
:1007F00085FC40210A4800F081FC1548007801285A
:100800000DD114A001F03CFA64211448FFF73CFF1D
:100810006421124801F017FA00200D490870BDE765
:10082000000802400D0A68656C6C6F20776F726C6F
:1008300064210D0A000000007B0000200D0A5458BE
:100840003A200000140000207C0000204600002018
:100850007A0000200D0A52583A200000F8000020CB
:10086000704700BFFEE700BFFEE700BFFEE700BF26
:10087000FEE770477047704710B5002410213048DC
:1008800001F07AF9012822D100212E4800F0B2F9B6
:100890002B48048884882B4800F0CFF9C0F164000D
:1008A00000B2294908800846B0F9000000280EDB94
:1008B0002649244800F017FA6421224800F0BBF9C9
:1008C0000121204800F096F901202149087010BD4F
:1008D00010B54FF020511B48303000F0E8F928B136
:1008E0004FF020511748303000F0FDF90021154835
:1008F000303000F07FF910BD10B5202000F0E6FA8E
:1009000058B11448007808B9012000E000201149CE
:100910000870202000F0E5FA10E04FF4007000F0BD
:10092000D5FA58B10C48007808B9012000E0002041
:10093000094908704FF4007000F0D3FA10BD0000B0
:10094000001001408864024078000020400F002021
:100950007A0000207B0000207C0000203249014307
:10096000324A1160704770B5002100230F2244689D
:100970001CB32E4C246804F4E064C4F5E064C4F3B2
:100980000721C1F10404E3B20A4144789C40E1B27A
:100990008478144021430C07210E254C05786155BD
:1009A000047804F01F050124AC4005786D11AD00FA
:1009B00005F1E025C5F8004109E0047804F01F05C1
:1009C0000124AC401B4D0678761145F8264070BDD9
:1009D000194A0A400243154B1B1F1A60704739B170
:1009E000124A121D12680243104B1B1D1A6006E0CA
:1009F0000E4A121D126882430C4B1B1D1A60704771
:100A0000042808D14FF0E021096941F004014FF0BA
:100A1000E022116107E04FF0E021096921F00401B3
:100A20004FF0E022116170470000FA050CED00E084
:100A300000E400E080E100E080FFFF1F016821F09A
:100A4000010101600021016041608160C1600161BC
:100A500021214161DB49884204D13D21D94A103A24
:100A600091608CE0D7491831884205D14FF4746108
:100A7000D44A103A916082E0D2493031884205D19F
:100A80004FF47411CF4A103A916078E0CD49483163
:100A9000884205D14FF07461CA4A103A91606EE005
:100AA000C8496031884204D1C749C64A103AD1606A
:100AB00065E0C4497831884204D1C449C14A103A3A
:100AC000D1605CE0BF499031884204D1C049BD4A41
:100AD000103AD16053E0BB49A831884205D14FF0AC
:100AE0003D51B84A103AD16049E0BA49884204D130
:100AF0003D21B84A083A116041E0B64918318842B0
:100B000005D14FF47461B34A083A116037E0B14936
:100B10003031884205D14FF47411AE4A083A116061
:100B20002DE0AC494831884205D14FF07461A94AA3
:100B3000083A116023E0A7496031884204D1A249F4
:100B4000A44A121F11601AE0A2497831884204D1E8
:100B50009E49A04A121F116011E09E4990318842BF
:100B600004D19B499B4A121F116008E09949A831A2
:100B7000884204D14FF03D51964A121F11607047D0
:100B800010B500220268944B1A40CC680B682343CE
:100B90004C6923438C692343CC6923430C6A234368
:100BA0004C6A23438C6A23434C6B23438C6B234353
:100BB0001A430260426922F00702D1E90B34234351
:100BC0001A4342610B6943604B6883608B68C36062
:100BD00010BD0021016041608160C160016141611F
:100BE0008161C161016241628162C16201634163ED
:100BF0008163704721B1026842F00102026003E0A4
:100C0000026822F001020260704721B1026842F4DA
:100C10000042026003E0026822F400420260704772
:100C200021B1026842F02002026003E0026822F073
:100C3000200202607047416070470146486880B2F8
:100C4000704722B1036843F40023036003E00368A4
:100C500023F4002303600161704721B1026842F46C
:100C60008022026003E0026822F480220260704762
:100C70000AB1016100E0C1607047014600200A68C6
:100C800002F400220AB1012000E000207047014672
:100C900000200A6802F001020AB1012000E00020F1
:100CA0007047014600204A6902F03800704730B5AD
:100CB00003460A4600200024464DAB4202D2414979
:100CC000103901E04349103902F000550DB14C686C
:100CD00000E00C68414D2C4004EA02050DB10120F2
:100CE00000E0002030BD02463A4B9A4202D235481D
:100CF000103801E03748103801F000531BB1374B72
:100D00000B40C36002E0354B0B408360704710B569
:100D100001F080034BB122B1436943F0800343618A
:100D200003E0436923F08003436180290BD02AB19B
:100D3000036801F01E042343036004E0036801F02C
:100D40001E04A343036010BD70B5024600200024BA
:100D50000025204EB24202D21A4B103B01E01D4B3F
:100D6000103B1F4E0E4036B11E2606EAD1241668EF
:100D700006EA040502E0566906F0800501F0005617
:100D80000EB15C6800E01C68144E344004EA0106B1
:100D900016B10DB1012000E0002070BD02460D4BE0
:100DA0009A4202D20748103801E00A48103801F090
:100DB00000531BB1094B0B40C36002E0074B0B40D3
:100DC00083607047106002403D000020400F00200B
:100DD00000003D20106402403F801CF07D0F7D0F1D
:100DE0003C0F3C0F002041490860091D0860091DA7
:100DF0000860091D08603E483C491431086070478E
:100E000000213A49C268002A3AD00A4612680368AB
:100E10009A430B461A600A1D126803689A430B1D19
:100E20001A60426811440A6803681A430A602F4A2C
:100E30000832126803689A432C4B08331A601A1D53
:100E4000126803689A43294B0C331A608268102A8F
:100E50000ED11A1F126803681A43244B08331A6014
:100E60001A1D126803681A43204B0C331A600DE0F8
:100E70001E49826811440A6803681A430A6005E043
:100E8000426811440A6803689A430A607047002167
:100E9000016041600C2181600021C16070471349ED
:100EA000103109680143114A103211607047014640
:100EB00000200E4A143212680A400AB1012000E0F4
:100EC000002070470949143108607047014600202E
:100ED000064A143212680A400AB1012000E00020DC
:100EE000704702491431086070470000003C01401F
:100EF000FFFF7F0010B504469848844208D10121C5
:100F0000084600F05EFB0021012000F05AFB76E06D
:100F10009348844208D10121022000F052FB0021B5
:100F2000022000F04EFB6AE08E48844208D1012185
:100F3000042000F046FB0021042000F042FB5EE0AC
:100F40008948844208D10121082000F03AFB0021A1
:100F5000082000F036FB52E08448844208D1012189
:100F6000102000F02EFB0021102000F02AFB46E0AC
:100F70007F48844208D10121202000F022FB00217B
:100F8000202000F01EFB3AE07A48844208D101217B
:100F9000402000F016FB0021402000F012FB2EE064
:100FA0007548844208D10121802000F00AFB00210D
:100FB000802000F006FB22E07048844208D1012125
:100FC000801500F0FEFA0021A01500F0FAFA16E0F4
:100FD0006B48844208D10121401500F0F2FA00214B
:100FE000601500F0EEFA0AE06648844207D101215C
:100FF000001500F0E6FA0021201500F0E2FA10BD1D
:10100000F0B50A4600210023002400BF3DE0012581
:1010100005FA01F3156805EA03049C4234D105681A
:101020004F000326BE40B54305604E005568B540ED
:101030000668354305605568012D02D05568022DBC
:1010400016D185684F000326BE40B54385604E002B
:101050009568B540866835438560456801268E40B1
:10106000B5434560456896898E40B6B235434560C4
:10107000C5684F000326BE40B543C5604E001569E4
:10108000B540C6683543C560491C1029BFD3F0BDC3
:101090004FF6FF710160002141608160C160016114
:1010A000704708B54FF480320092009A0A430092CC
:1010B000009AC261C161009AC261C2690092C269AC
:1010C000009208BD0246002013690B400BB10120BD
:1010D00000E0002070470146086980B27047024670
:1010E000002053690B400BB1012000E00020704745
:1010F0000146486980B27047018370474183704759
:101100000AB1018300E04183704741617047426941
:101110004A4042617047F0B5002300244D07ED0EB0
:1011200002FA05F3CE1000F1200555F826504E07BF
:10113000F70E0F26BE40B543CF1000F1200646F84B
:101140002750CE1000F1200555F8265045EA03043B
:10115000CE1000F1200545F82640F0BD0000024009
:101160000004024000080240000C0240001002404F
:101170000014024000180240001C024000200240FF
:101180000024024000280240F748006840F00100B7
:10119000F54908600020F44908310860F248006809
:1011A000F2490840F0490860F148091D0860F1481B
:1011B000ED4984310860EC48006820F48020EA4959
:1011C00008600020E8490C310860E7498C3108606C
:1011D00070470021E44A921C117011460870704754
:1011E00010B501460022002300204A11012A02D135
:1011F000DD4C236808E0022A03D1DB4C70342368FD
:1012000002E0D94C7434236801F01F020124944099
:101210001C400CB1012000E0002010BD38B50020BA
:1012200000900024002500BF3120FFF7D9FF0546BC
:101230000098401C00900098B0F5A04F01D0002D00
:10124000F2D03120FFF7CCFF08B1012400E00024E8
:10125000204638BD01460020C34A106820F0F8003F
:1012600040EAC10010607047C34908607047002120
:10127000BD4A703211701170012802D004280AD1C1
:1012800004E00121B84A7032117005E00521B64A28
:101290007032117000E000BF00BF7047B7490860AE
:1012A000704770B5049C41EA82150126C6EB5306CF
:1012B00045EA0645054345EA0465AB4E361D3560F3
:1012C00070BDAD490866704710B5830143EA0173EC
:1012D0001343A54C8434236010BDA749886670472A
:1012E00010B5830143EA016343EA02739E4C8834DC
:1012F000236010BDA049086770479F49C8647047C4
:1013000002460020984B0833186820F0EC6042EA4F
:1013100001031843944B08331860704702460020BD
:10132000914B0833186820F0784042EA01031843D3
:101330008D4B083318607047014600208A4A0832F6
:10134000106820F00300084310607047864808309A
:10135000006800F00C00704701460020824A083205
:10136000106820F0F000084310607047014600202C
:101370007D4A0832106820F4E0500843106070473E
:1013800001460020784A0832106820F4604040EAA4
:10139000C10010607047F0B5002100220024022532
:1013A00000260223704F08373F6807F00C0121B177
:1013B000042905D0082937D105E0714F076036E0D0
:1013C0006F4F076033E0684F3F1D3F68C7F380569B
:1013D000654F3F1D3F6807F03F036EB1684FB7FB95
:1013E000F3F7DFF884C10CF1040CDCF800C0CCF397
:1013F000881C07FB0CF40CE0614FB7FBF3F7DFF838
:1014000068C10CF1040CDCF800C0CCF3881C07FBAD
:101410000CF4554F3F1D3F68C7F301477F1C7D000B
:10142000B4FBF5F7076002E0554F076000BF00BF4F
:101430004D4F08373F6807F0F0010909514F7A5CBA
:101440000768D7404760484F08373F6807F4E051C6
:10145000890A4C4F7A5C4768D7408760424F08370B
:101460003F6807F46041490B464F7A5C4768D740B4
:10147000C760F0BD002100F44072B2F5407F0AD190
:10148000394A0832116821F4F8113F4A02401143E9
:10149000354A08321160344A70321268C0F30B03C7
:1014A0001A43314B70331A6070473449443908602D
:1014B00070473249403908607047344908607047C6
:1014C00001460020284A8C32106820F01F004A1E76
:1014D0001043254A8C321060704701460020224A92
:1014E0008C32106820F4F8504A1E40EA02201E4A4E
:1014F0008C3210607047014600201B4A8C32106805
:1015000020F440300843106070472149086070475C
:1015100039B1154A303212680243134B30331A6026
:1015200006E0114A3032126882430F4B30331A60A2
:10153000704739B10C4A3432126802430A4B3433D3
:101540001A6006E0084A343212688243064B34338C
:101550001A607047F1B1044A403212680243024BEC
:1015600040331A601BE0000000380240FFFFF6EA3B
:10157000103000240030002000004742800E474217
:101580000024F4007D000020FFFCFF0F5C014742B7
:10159000E01147426D4A126882436C4B1A607047F3
:1015A00039B16A4A121D12680243684B1B1D1A604A
:1015B00006E0664A121D12688243644B1B1D1A60C6
:1015C000704739B1614A303A126802435F4B303B91
:1015D0001A6006E05D4A303A126882435B4B303B4A
:1015E0001A60704739B1594A2C3A12680243574B76
:1015F0002C3B1A6006E0554A2C3A12688243534B42
:101600002C3B1A60704739B1504A203A12680243A5
:101610004E4B203B1A6006E04C4A203A1268824347
:101620004A4B203B1A60704739B1484A1C3A12684D
:101630000243464B1C3B1A6006E0444A1C3A1268BF
:101640008243424B1C3B1A60704739B13F4A10320B
:10165000126802433D4B10331A6006E03B4A1032D9
:1016600012688243394B10331A60704739B1374AD8
:10167000143212680243354B14331A6006E0334AC1
:10168000143212688243314B14331A60704739B1F7
:101690002E4A2032126802432C4B20331A6006E097
:1016A0002A4A203212688243284B20331A6070473E
:1016B00039B1264A243212680243244B24331A607B
:1016C00006E0224A243212688243204B24331A60F7
:1016D0007047012808D11D493031096841F00801DF
:1016E0001A4A3032116007E018493031096821F098
:1016F0000801164A30321160704739B1134A333A43
:1017000012780243114B333B1A7006E00F4A333A0A
:10171000127882430D4B333B1A7070470B483430BC
:10172000006840F080700949343108607047014614
:101730000020064A343A12680A400AB1012000E04B
:101740000020704701493239087070474038024024
:1017500010B501218803FFF767FF00214FF4804097
:10176000FFF762FF10BD1C49086070471B49086203
:10177000704730B500228B071C0F0F2303FA04F2C9
:10178000154B08338C1053F824309343124C083413
:101790008D1044F8253023468C1053F824308C07E4
:1017A000240F00FA04F423430B4C08348D1044F842
:1017B000253030BD0949DC310860704708490860B0
:1017C0007047002004492031096801F4807109B193
:1017D000012000E00020704700380140000027424F
:1017E0000004274210B50446FA48844208D101217A
:1017F0001020FFF719FF00211020FFF715FF57E019
:10180000F548844209D101214804FFF7FCFE00217C
:101810004FF40030FFF7F7FE4AE0F048844209D168
:1018200001218804FFF7EFFE00214FF48020FFF72D
:10183000EAFE3DE0EA48844209D10121C804FFF7ED
:10184000E2FE00214FF40020FFF7DDFE30E0E54826
:10185000844209D101210805FFF7D5FE00214FF48C
:101860008010FFF7D0FE23E0DF48844208D1012139
:101870002020FFF7D9FE00212020FFF7D5FE17E03A
:10188000DA48844209D101218807FFF7BCFE002114
:101890004FF08040FFF7B7FE0AE0D548844207D1F9
:1018A00001214005FFF7AFFE00216005FFF7ABFE09
:1018B00010BD2DE9FF4705460E460024A14600BF96
:1018C000A046B08900B100BF2C8A24F44054F088AF
:1018D00004432C82AC8941F20C608443B088318986
:1018E0000843718908430443AC81AC8A24F44074F2
:1018F000B0890443AC826846FFF74DFDB548854288
:1019000002D0B948854202D1DDF80C9001E0DDF843
:101910000890A88900F4004040B109EBC90000EB31
:10192000091031684900B0FBF1F707E009EBC90085
:1019300000EB091031688900B0FBF1F76420B7FBB8
:10194000F0F004012009642101FB1078A88900F45B
:10195000004040B1322000EBC800B0FBF1F000F0D5
:101960000700044308E0322000EB08106421B0FBBC
:10197000F1F000F00F0004432C81BDE8FF874FF425
:101980001651016000218180C18001810C214181BB
:1019900000218181704710B502460020108A20F492
:1019A00070600B884C8823438C882343CC88234366
:1019B0001843108210BD0021018041808180C180C8
:1019C000704721B1828942F40052828104E0828909
:1019D0004DF6FF731A4082817047028B02F47F42FA
:1019E0000283028B0A430283704721B1828942F449
:1019F0000042828103E08289C2F30E028281704735
:101A000021B1828A42F40062828204E0828A4FF22B
:101A1000FF731A4082827047C1F3080282807047C8
:101A200001468888C0F308007047028A4FF6F073B9
:101A30001A400282028A0A430282704721B18289D7
:101A400042F00202828104E082894FF6FD731A405F
:101A50008281704782894FF2FF731A4082818289A6
:101A60000A4382817047028A4FF6DF731A4002826E
:101A7000028A0A430282704721B1028A42F48042FC
:101A8000028204E0028A4BF6FF731A40028270471A
:101A9000818941F001018181704721B1828A42F040
:101AA0000802828204E0828A4FF6F7731A4082822B
:101AB0007047028BD2B20283028B42EA0122028378
:101AC000704721B1828A42F02002828204E0828A39
:101AD0004FF6DF731A408282704721B1828A42F04A
:101AE0001002828204E0828A4FF6EF731A408282EB
:101AF0007047828A4FF6FB731A408282828A0A43B9
:101B00008282704721B1828A42F00202828204E01E
:101B1000828A4FF6FD731A40828270471AB1838A17
:101B20000B43838202E0838A8B4383827047F0B544
:101B30000346002400260025002040F66A17B9421B
:101B400000D100BF1846C1F3421401F01F0601275F
:101B500007FA06F5012C01D10C3004E0022C01D16A
:101B6000103000E014301AB107682F43076002E01C
:101B70000768AF430760F0BD02460020B1F5007F63
:101B800000D100BF13880B400BB1012000E0002002
:101B9000704701F40072B2F5007F00D100BFCA4364
:101BA0000280704770B50246002400230025002003
:101BB00040F66A16B14200D100BFC1F3421501F0F0
:101BC0001F03012606FA03F3012D13D19689334032
:101BD00017E00000001001400044004000480040B1
:101BE000004C0040005000400014014000780040CC
:101BF000007C0040022D02D1168A334001E0968A13
:101C000033400C12012606FA04F41688344013B14E
:101C10000CB1012000E0002070BD10B500220023AF
:101C200040F66A14A14200D100BF0A120124944078
:101C3000A3B2DC43048010BDD2B201E000F8012B56
:101C4000491EFBD270470022F6E710B513460A463C
:101C500004461946FFF7F0FF204610BD064C074D1D
:101C600006E0E06840F0010394E80700984710346C
:101C7000AC42F6D3FEF794FAD01C0008F01C000822
:101C8000014A024900F013B8B50600089000002090
:101C900002E008C8121F08C1002AFAD17047704735
:101CA000002001E001C1121F002AFBD170472DE97D
:101CB000F04116460F460446002503E03946B0477A
:101CC000641C6D1C20780028F8D12846BDE8F081FE
:101CD000F01C00080000002094000000901C000888
:101CE000841D000894000020CC100000A01C0008F7
:101CF0000024F400000000000000000001020304C2
:101D0000060708094B4559312C20444D41322043E8
:101D100048342053747265616D3721000000000063
:101D200000000000000000000000000000000000B3
:101D30000000000000004B4559322C20444D412149
:101D40000000000000000000000000000000000093
:101D50000000000000000000000000000000000083
:101D60000000000000000000000000000000000073
:101D70000001020304010203040607080900000031
:041D8000000000005F
:040000050800019955
:00000001FF
